:020000040800F2
:1000000000040020450100084D0100084F010008D0
:1000100051010008530100085501000800000000CC
:100020000000000000000000000000005701000870
:1000300059010008000000005B0100085D01000894
:100040005F0100085F0100085F0100085F01000810
:100050005F0100085F0100085F0100085F01000800
:100060005F0100085F0100085F01000891010008BE
:10007000B1010008D1010008F101000811020008D7
:1000800031020008510200085F0100085F0100080A
:100090005F0100085F0100085F0100085F010008C0
:1000A0005F0100085F0100085F0100085F010008B0
:1000B0005F0100085F0100085F0100085F010008A0
:1000C0005F0100085F0100085F0100085F01000890
:1000D0005F0100085F0100085F0100085F01000880
:1000E0005F0100085F0100085F0100085F01000870
:1000F0005F0100085F0100085F0100085F01000860
:100100005F0100085F0100085F0100085F0100084F
:100110005F0100085F0100085F0100085F0100083F
:100120007102000891020008B5020008D50200081B
:10013000DFF80CD000F018F80048004777040008FA
:10014000000400200648804706480047FEE7FEE717
:10015000FEE7FEE7FEE7FEE7FEE7FEE7FEE7FEE777
:10016000F903000831010008064C074D06E0E0687D
:1001700040F0010394E8070098471034AC42F6D3EE
:10018000FFF7DAFF7C0400088C04000870470000C9
:1001900010B50548006800F00F040348446020468D
:1001A000FFF7F4FF10BD00000000024070470000A0
:1001B00010B505480068C0F30314200102494860E7
:1001C0002046FFF7F3FF10BD00000240704700001B
:1001D00010B505480068C0F30324200202494860B6
:1001E0002046FFF7F3FF10BD0000024070470000FB
:1001F00010B505480068C0F3033420030249486085
:100200002046FFF7F3FF10BD0000024070470000DA
:1002100010B505480068C0F3034420040249486053
:100220002046FFF7F3FF10BD0000024070470000BA
:1002300010B505480068C0F3035420050249486022
:100240002046FFF7F3FF10BD00000240704700009A
:1002500010B505480068C0F30364200602494860F1
:100260002046FFF7F3FF10BD00000240704700007A
:1002700010B50548006800F00F040348001D046035
:100280002046FFF7F3FF10BD000402407047000056
:1002900010B506480068C0F3031420010349091D86
:1002A00008602046FFF7F2FF10BD00000004024086
:1002B0007047000010B506480068C0F30324200210
:1002C0000349091D08602046FFF7F2FF10BD00003A
:1002D0000004024010B50C480068C0F3033434B188
:1002E00020030949091D0860204600F00FF8064860
:1002F0000068C0F3034434B120040349091D0860B9
:10030000204600F004F810BD00040240704770471A
:1003100010B500F001F810BD0CB500200190009060
:100320003348006840F480303149086000BF3048ED
:10033000006800F4003000900198401C0190009883
:1003400018B90198B0F5A06FF1D12948006800F400
:10035000003010B10120009001E0002000900098D2
:10036000012843D12348006840F01000214908606B
:100370000846006820F0030008600846006840F066
:10038000020008601A4840681949486008464068F9
:1003900048600846406840F480604860084640680D
:1003A00020F47C1048600846406840F4E81048603B
:1003B0000846006840F08070086000BF0C48006884
:1003C00000F000700028F9D00948406820F00300D0
:1003D000074948600846406840F00200486000BF96
:1003E0000348406800F00C000828F9D10CBD00005B
:1003F000001002400020024010B51348006840F091
:1004000001001149086008464068104908400E493B
:100410004860084600680E4908400B4908600846D5
:10042000006820F4802008600846406820F4FE0040
:1004300048604FF41F008860FFF76AFF4FF00060CC
:100440000449086010BD0000001002400000FFF8E1
:10045000FFFFF6FE08ED00E002E008C8121F08C129
:10046000002AFAD170477047002001E001C1121F35
:10047000002AFBD170470020704700008C04000860
:0C048000000000200004000068040008D8
:0400000508000131BD
:00000001FF
