:020000040800F2
:10000000600200206D010008710100087301000802
:100010007501000877010008790100080000000060
:100020000000000000000000000000007B0100084C
:100030007D010008000000007F0100088101000828
:100040008301000883010008830100088301000880
:100050008301000883010008830100088301000870
:100060008301000883010008830100088301000860
:100070008301000883010008830100088301000850
:100080008301000883010008830100088301000840
:100090008301000883010008830100088301000830
:1000A0008301000883010008830100088301000820
:1000B0008301000883010008830100088301000810
:1000C0008301000883010008830100088301000800
:1000D00083010008830100088301000883010008F0
:1000E00083010008830100088301000800F002F882
:1000F00000F02CF80AA090E8000C82448344AAF196
:100100000107DA4501D100F021F8AFF2090EBAE893
:100110000F0013F0010F18BFFB1A43F0010318473B
:1001200098020000A80200000023002400250026F9
:10013000103A28BF78C1FBD8520728BF30C148BF4A
:100140000B6070471FB51FBD10B510BD00F0F9F86A
:100150001146FFF7F7FF00F08DF800F017F903B430
:10016000FFF7F2FF03BC00F01FF90000084800474A
:10017000FEE7FEE7FEE7FEE7FEE7FEE7FEE7FEE757
:10018000FEE7FEE703480449024A044B70470000BB
:10019000ED000008600000206002002060000020E8
:1001A000002183221F4B1A601A46126842F48032E3
:1001B0001A6000BF1B4A1268520C002AFAD04FF492
:1001C0008062184B5A60821ED0B21A46526842EAC8
:1001D00080425A601A46526842F480325A60124A8B
:1001E000126842F03202104B1A600E4A126842F056
:1001F00080720C4B1A6000BF0A4A1268520E002A25
:10020000FAD0084A526842F00202064B5A6005E0F2
:10021000044A5268C2F3870101F003010229F7D1B1
:1002200070470000001002400020024010480068A3
:1002300020F00F000E4908600846006840F0333097
:1002400008604FF011300A49103108601020084949
:10025000083108607047012804D10102044A0C32B9
:10026000116004E04FF48071014A10321160704750
:10027000040C01400920FFF793FF0D48806940F00E
:1002800008000B498861FFF7D1FF4FF01130094991
:1002900008600BE00120FFF7DEFF642000F00CF89F
:1002A0000020FFF7D8FF642000F006F8F2E7000016
:1002B00000100240140C0140014642F228324A4329
:1002C0004FF0E0235A6100229A6101221A6100BFB7
:1002D0004FF0E022106900F001021AB100F4803200
:1002E000002AF5D000224FF0E0231A619A6170478E
:1002F000014601EBC1024FF0E0235A6100229A61EE
:1003000001221A6100BF4FF0E022106900F00102E3
:100310001AB100F48032002AF5D000224FF0E02319
:100320001A619A6170473C2005E0642100E0491E93
:100330000029FCDC401E0028F7DC7047704770473E
:100340007047754600F02CF8AE46050069465346E6
:1003500020F00700854618B020B5FFF713FFBDE871
:1003600020404FF000064FF000074FF000084FF01C
:10037000000B21F00701AC46ACE8C009ACE8C009AD
:10038000ACE8C009ACE8C0098D46704710B504461A
:10039000AFF300802046BDE81040FFF7E0BE00004C
:1003A000004870470000002001491820ABBEFEE75E
:1003B0002600020070470000C8030008000000206B
:0803C0006002000028010008A2
:040000050800016D81
:00000001FF
