:020000040800F2
:1000000060020020710100087501000877010008F6
:10001000790100087B0100087D0100080000000054
:100020000000000000000000000000007F01000848
:10003000810100080000000083010008850100081C
:100040008701000887010008870100088701000870
:100050008701000887010008870100088701000860
:100060008701000887010008870100088701000850
:100070008701000887010008870100088701000840
:100080008701000887010008870100088701000830
:100090008701000887010008870100088701000820
:1000A0008701000887010008870100088701000810
:1000B0008701000887010008870100088701000800
:1000C00087010008870100088701000887010008F0
:1000D00087010008870100088701000887010008E0
:1000E00087010008870100088701000800F002F876
:1000F00000F02EF80AA090E8000C82448344AAF194
:100100000107DA4501D100F023F8AFF2090EBAE891
:100110000F0013F0010F18BFFB1A43F0010318473B
:10012000B4020000C40200000023002400250026C1
:10013000103A28BF78C1FBD8520728BF30C148BF4A
:100140000B6070471FB500F03EF91FBD10B510BD24
:1001500000F0FDF81146FFF7F5FF00F093F800F00E
:100160001BF903B4FFF7F2FF03BC00F025F9000010
:1001700008480047FEE7FEE7FEE7FEE7FEE7FEE78A
:10018000FEE7FEE7FEE7FEE703480449024A044BA8
:1001900070470000ED0000086000002060020020B1
:1001A00060000020002183221E4B1A601A4612684C
:1001B00042F480321A6000BF1A4A1268520CFBD017
:1001C0004FF48062174B5A60821ED0B21A465268B2
:1001D00042EA80425A601A46526842F480325A60BB
:1001E000114A126842F032020F4B1A600D4A12682F
:1001F00042F080720B4B1A6000BF0A4A1268520E1E
:10020000FBD0084A526842F00202064B5A6005E0F1
:10021000044A5268C2F3870101F003010229F7D1B1
:1002200070470000001002400020024011480068A2
:1002300020F00F001049C1F8040C0846D0F8040C57
:1002400040F033300B4908604FF011300B49086023
:100250004FF010000849C1F80C0C7047012803D179
:100260000102074A116003E04FF48071034A1160F4
:1002700070470000040C014000000140140C0140D4
:10028000100C01400920FFF78DFF0D48806940F0F8
:1002900008000B498861FFF7C9FF4FF01130094989
:1002A00008600BE00120FFF7D9FF642000F00CF894
:1002B0000020FFF7D3FF642000F006F8F2E700000B
:1002C00000100240140C0140014642F228324A4319
:1002D0004FF0E0235A6100229A6101221A6100BFA7
:1002E0004FF0E022106910F0010F02D010F4803FAF
:1002F000F6D000224FF0E0231A619A617047014660
:1003000001EBC1024FF0E0235A6100229A61012201
:100310001A6100BF4FF0E022106910F0010F02D007
:1003200010F4803FF6D000224FF0E0231A619A616A
:1003300070473C2005E0642100E0491E0029FCDCF8
:10034000401E0028F7DC70477047704770477546BD
:1003500000F028F8AE4605006946534620F0070035
:10036000854618B020B5FFF70FFFBDE820404FF0DD
:1003700000064FF000074FF000084FF0000B21F08F
:100380000701AC46ACE8C009ACE8C009ACE8C0095C
:10039000ACE8C0098D4670470446AFF300802046A4
:1003A000FFF7DFFE0048704700000020014870475B
:1003B000704700BF0400002001491820ABBEFEE7D3
:1003C00026000200704710B5FFF7F0FF4FF0000164
:1003D000016010BDE403000800000020600200007E
:0403E00028010008E8
:04000005080001717D
:00000001FF
