:020000040800F2
:1000000090060020D5010008DD010008DF0100088E
:10001000E1010008E3010008E5010008000000001C
:10002000000000000000000000000000E7010008E0
:10003000E901000800000000EB010008ED010008E4
:10004000EF010008EF010008EF010008EF010008D0
:10005000EF010008EF010008EF010008EF010008C0
:10006000EF010008EF010008EF0100088504000817
:10007000A5040008C5040008E504000805050008FB
:100080002505000845050008EF010008EF010008FC
:10009000EF010008EF010008EF010008EF01000880
:1000A000EF010008EF010008EF010008EF01000870
:1000B00011100008EF010008EF010008EF0100082F
:1000C000EF010008EF010008EF010008EF01000850
:1000D000EF010008EF01000879100008EF010008A7
:1000E000EF010008EF010008EF010008EF01000830
:1000F000EF010008EF010008EF010008EF01000820
:10010000EF010008EF010008EF010008EF0100080F
:10011000EF010008EF010008EF010008EF010008FF
:100120006505000885050008A9050008C90500083F
:1001300000F002F800F03FF80AA090E8000C8244BA
:100140008344AAF10107DA4501D100F034F8AFF297
:10015000090EBAE80F0013F0010F18BFFB1A43F0A5
:10016000010318470812000028120000103A24BFAB
:1001700078C878C1FAD8520724BF30C830C144BF0C
:1001800004680C607047000000230024002500264E
:10019000103A28BF78C1FBD8520728BF30C148BFEA
:1001A0000B607047642900F07D80002070471FB508
:1001B0001FBD10B510BD00F02AF91146FFF7F7FF7B
:1001C00001F0C2F800F048F903B4FFF7F2FF03BCF6
:1001D00000F050F90948804709480047FEE7FEE76C
:1001E000FEE7FEE7FEE7FEE7FEE7FEE7FEE7FEE7E7
:1001F00004480549054A064B70470000B10F000846
:10020000310100089000002090060020900200209C
:10021000900200200FB41CB5074B06AA7B44694628
:100220000090059800F0DBF80020694600F0EAF83D
:100230001CBC5DF814FB0000E50100002DE9F04155
:100240000E460446002020622046E168884730B30D
:10025000252805D0D4E901219047206A401CF2E707
:10026000E168204600278847050018D0A5F1410025
:10027000192802D820354FF4006732462946204617
:100280002760FFF78FFF40B1012804D0F61D26F04C
:1002900007060836D8E7361DD6E72846DAE7206A8B
:1002A000BDE8F0812DE9F04106460024106875296B
:1002B000314616A510D0AFF30080002802DA404284
:1002C00013A507E031688A0701D512A502E04907A6
:1002D00004D511A5012401E0AFF3008000210A221A
:1002E00006F1240709E0B0FBF2FCB0FBF2F302FBDD
:1002F0001C00303078541846491C0028F3D123469E
:100300002A463046BDE8F04100F00BB8000000007E
:100310002D0000002B0000002000000070477047F7
:1003200070472DE9F0470D4699469246044600F184
:1003300024080168880604D5E06921F010012160D5
:1003400000E00120A84201DD471B00E00027A16971
:100350007A1902EB0900081AA0612078C00602D4BD
:100360002046AFF30080002608E0D4E901211AF806
:1003700006009047206A401C761C20624E45F4DB44
:100380002078C0060AD52046AFF3008006E0D4E905
:10039000012130209047206A401C2062381EA7F1BE
:1003A0000107F4DC07E0D4E9012118F805009047C3
:1003B000206A401C2062281EA5F10105F3DC2046BE
:1003C000AFF300802078000602D50220BDE8F08758
:1003D0000120FBE701694A1C02610878704700B5FB
:1003E0008FB0CDE901310021059105497944CDE96E
:1003F000031011466846FFF721FF0FB000BD000053
:10040000E5FFFFFF0A6802F8010B0A6070477546B6
:1004100000F02CF8AE4605006946534620F0070070
:10042000854618B020B5FFF7E3FEBDE820404FF049
:1004300000064FF000074FF000084FF0000B21F0CE
:100440000701AC46ACE8C009ACE8C009ACE8C0099B
:10045000ACE8C0098D46704710B50446AFF3008084
:100460002046BDE81040FFF7AFBE000000487047CF
:100470003000002001491820ABBEFEE72600020034
:100480007047704710B50548006800F00F04034836
:1004900044602046FFF7F5FF10BD00000000024059
:1004A0007047000010B505480068C0F30314200130
:1004B000024948602046FFF7F3FF10BD00000240EC
:1004C0007047000010B505480068C0F303242002FF
:1004D000024948602046FFF7F3FF10BD00000240CC
:1004E0007047000010B505480068C0F303342003CE
:1004F000024948602046FFF7F3FF10BD00000240AC
:100500007047000010B505480068C0F3034420049C
:10051000024948602046FFF7F3FF10BD000002408B
:100520007047000010B505480068C0F3035420056B
:10053000024948602046FFF7F3FF10BD000002406B
:100540007047000010B505480068C0F3036420063A
:10055000024948602046FFF7F3FF10BD000002404B
:100560007047000010B50548006800F00F0403480C
:10057000001D04602046FFF7F3FF10BD0004024099
:100580007047000010B506480068C0F3031420014E
:100590000349091D08602046FFF7F2FF10BD000067
:1005A000000402407047000010B506480068C0F320
:1005B000032420020349091D08602046FFF7F2FFCB
:1005C00010BD00000004024010B50C480068C0F3E4
:1005D000033434B120030949091D0860204600F0A6
:1005E0000FF806480068C0F3034434B120040349FF
:1005F000091D0860204600F004F810BD0004024008
:100600007047704751B18200A2F1C042126842F0B7
:1006100001038200A2F1C042136009E08200A2F14E
:10062000C0421268034B1A408300A3F1C0431A6012
:1006300070470000FEFF0F00D0E901121143C268AD
:100640001143026911434269114382691143C2692E
:100650001143026A1143426A1143826A1143C26A1A
:100660001143026B114302689200A2F1C042116073
:10067000816808290BD101688900A1F1C04109688E
:1006800041F0400201688900A1F1C0410A60416B5C
:100690000968426B526841EA0211426B926841EA72
:1006A0000221426B928941EA0241426B128A41EA7D
:1006B0000251426B127D41EA0261426B9269114321
:1006C0000268521C9200A2F1C0421160C16AB1F5E9
:1006D000804F1BD1816B0968826B526841EA02111D
:1006E000826B926841EA0221826B128A41EA0251CE
:1006F000826B127D41EA0261826B9269114302684A
:100700009200A2F1C042C2F8041107E06FF07042FB
:1007100001688900A1F1C041C1F80421704700B50A
:1007200097B00121080200F027FB02200190002071
:1007300002900520039000200490059006904FF051
:100740008050079000200890099008200A901020FF
:100750000B9000200C900E900F9010904FF4805052
:100760001190002012901390149001A815901690EB
:1007700008A8FFF761FF01210020FFF743FF17B032
:1007800000BD000008B50420ADF8000018208DF869
:10079000030069460F4800F023F80820ADF8000078
:1007A00004208DF8030069460A4800F019F820205B
:1007B000ADF8000018208DF8030003208DF802002A
:1007C0006946054800F00CF80121044800F0DEF805
:1007D00008BD000000080140000C014000081A009C
:1007E0002DE9F041024600250026002000230024C8
:1007F000002791F803C00CF00F0591F803C00CF02E
:10080000100CBCF1000F03D091F802C04CEA0505B2
:1008100091F800C0BCF1000F31D0146800202BE02B
:100820004FF0010C0CFA00F3B1F800C00CEA03061B
:100830009E4220D183004FF00F0C0CFA03F7BC430B
:1008400005FA03FC4CEA040491F803C0BCF1280F3C
:1008500006D14FF0010C0CFA00FCC2F814C00AE0FB
:1008600091F803C0BCF1480F05D14FF0010C0CFA10
:1008700000FCC2F810C0401C0828D1D31460B1F8A5
:1008800000C0BCF1FF0F34DD546800202EE000F101
:10089000080C4FF0010808FA0CF3B1F800C00CEA9C
:1008A00003069E4221D183004FF00F0C0CFA03F790
:1008B000BC4305FA03FC4CEA040491F803C0BCF104
:1008C000280F05D100F1080C08FA0CF8C2F81480C2
:1008D00091F803C0BCF1480F07D100F1080C4FF0AC
:1008E000010808FA0CF8C2F81080401C0828CED382
:1008F0005460BDE8F081000008B501217C2000F0C3
:100900005BFA4FF40050ADF8000003208DF80200B0
:1009100010208DF8030069461A48FFF761FF022096
:10092000ADF8000069461848FFF75AFF4CF23370E3
:10093000ADF8000003208DF8020018208DF80300A8
:1009400069461048FFF74CFF4FF68070ADF8000085
:1009500069460D48FFF744FF8020ADF80000694666
:100960000848FFF73DFF4FF40060ADF8000069460E
:100970000448FFF735FF4FF40051024800F050F8EB
:1009800008BD00000014014000180140F0B50A46FF
:10099000002300240021002500F00046B6F1004F9E
:1009A00002D11D4EF16901E01B4E7168C0F3034591
:1009B00083B200F44016B6F5401F08D121F07061F3
:1009C000154E766826F07066134F7E6012E000F4D4
:1009D0008016B6F5801F06D1032606FA05F4A1435A
:1009E00041F0706106E0460D360103FA06F6B143A8
:1009F00041F0706122B1460D360103FA06F631432B
:100A000000F00046B6F1004F02D1034EF16101E063
:100A1000014E7160F0BD000000000140416170476F
:100A20000161704710B502218648FFF7F7FF4FF4C8
:100A30007A7000F06DFC02218248FFF7F1FF4FF45D
:100A40007A7000F065FC0021084600F001F90021F1
:100A5000084600F0FDF80021084600F0F9F80021F2
:100A6000084600F0F5F84FF4C4414FF4806000F000
:100A7000EFF840F60801082000F0EAF84FF4406172
:100A8000881000F0E5F845F60B2140F2013000F047
:100A9000DFF840F6061140F2023000F0D9F841F2DA
:100AA000170140F2033000F0D3F84FF40C514FF42B
:100AB000417000F0CDF84FF4B85140F2053000F02D
:100AC000C7F846F2093140F2063000F0C1F840F6AE
:100AD000094140F2073000F0BBF841F20C014FF43D
:100AE000427000F0B5F842F2322140F2093000F0D5
:100AF000AFF81621102000F0ABF840F201111120E0
:100B000000F0A6F80021122000F0A2F80121132025
:100B100000F09EF84FF44C714FF4807000F098F89C
:100B200040F2372140F2011000F092F84FF470616A
:100B300040F2031000F08CF84FF4C2414FF42070E3
:100B400000F086F84CF2B0114FF4817000F080F89C
:100B50004FF48071012000F07BF84FF48071022087
:100B600000F076F841F23001032000F071F8012125
:100B7000092000F06DF800210C2000F069F84FF416
:100B80000041902000F064F800210F2000F060F890
:100B900000214FF4047000F05BF8EF2140F21120C7
:100BA00000F056F8002140F2122000F051F840F217
:100BB0008F1140F2132000F04BF800214FF4A06099
:100BC00000F046F8002140F2015000F041F85F21AA
:100BD00040F2025000F03CF8012140F2014000F0E8
:100BE00037F8002140F2044000F032F84FF48071F1
:100BF000072000F02DF800214FF4007000F028F8D5
:100C0000002140F2012000F023F800214FF4007091
:100C100000F01EF8002140F2012000F019F840F227
:100C200002204FF0C0410880002404E04FF6FF701E
:100C300000F016F8641C04488442F7D300200349EE
:100C4000086010BD0018014000770100040000207A
:100C50004FF0C0431880014B1980704700000260BC
:100C6000014A108070470000000002604FF0C0424F
:100C70001080704700B541F230010320FFF7E8FF14
:100C800000214FF40070FFF7E3FF002140F2012044
:100C9000FFF7DEFF002140F21220FFF7D9FF00210D
:100CA0004FF40470FFF7D4FF40F20220FFF7DEFF9D
:100CB0000820FFF7D5FF00BD1CB54FF4E06000F041
:100CC00051F826208DF8040001208DF805008DF8DC
:100CD000070001A800F00EF81C208DF8000000208D
:100CE0008DF8010001208DF80300684600F002F83D
:100CF0001CBD000070B5002100230F22C47804B38E
:100D0000154C246804F4E064C4F5E064210AC1F1E0
:100D10000403CA40447804FA03F184781440214360
:100D200009010E4C0678A155047804F01F05012432
:100D3000AC4005786D11AD0005F1E025C5F8004126
:100D400009E0047804F01F050124AC40044D067846
:100D5000761145F8264070BD0CED00E000E400E09F
:100D600080E100E002490143024A1160704700003F
:100D70000000FA050CED00E029B1064A5269024371
:100D8000044B5A6104E0034A52698243014B5A61A1
:100D9000704700000010024029B1064AD2690243A0
:100DA000044BDA6104E0034AD2698243014BDA6101
:100DB000704700000010024029B1064A92690243C0
:100DC000044B9A6104E0034A92698243014B9A61A1
:100DD000704700000010024010B500F0E9F8012152
:100DE0000520FFF7E9FF01210148FFF7D5FF10BDFE
:100DF0008100020030B500210022002400232D4D87
:100E00006D6805F00C0121B1042905D0082923D112
:100E100005E0294D056022E0274D05601FE0254DC6
:100E20006D6805F47012234D6D6805F48034022559
:100E300005EB92421CB9214D554305600BE01D4D59
:100E40006D6805F400351DB11C4D5543056002E089
:100E5000194D5543056002E0174D056000BF00BF06
:100E6000144D6D6805F0F0010909154D6B5C0568BE
:100E7000DD4045600F4D6D6805F4E061090A104DD5
:100E80006B5C4568DD4085600A4D6D6805F4605116
:100E9000C90A0B4D6B5C4568DD40C560054D6D684A
:100EA00005F44041890B074D6B5CC568B5FBF3F554
:100EB000056130BD0010024000127A0000093D00BB
:100EC000080000201800002010B500F001F810BD47
:100ED0000CB50020019000903348006840F4803049
:100EE0003149086000BF3048006800F400300090CD
:100EF0000198401C0190009818B90198B0F5A06FB6
:100F0000F1D12948006800F4003010B101200090B0
:100F100001E0002000900098012843D12348006898
:100F200040F01000214908600846006820F00300E6
:100F300008600846006840F0020008601A484068EF
:100F4000194948600846406848600846406840F4CF
:100F5000806048600846406820F47C10486008467D
:100F6000406840F4E81048600846006840F080702F
:100F7000086000BF0C48006800F000700028F9D03D
:100F80000948406820F00300074948600846406867
:100F900040F00200486000BF0348406800F00C00C9
:100FA0000828F9D10CBD00000010024000200240CA
:100FB00010B51348006840F0010011490860084668
:100FC0004068104908400E494860084600680E49CC
:100FD00008400B4908600846006820F4802008603B
:100FE0000846406820F4FE0048604FF41F00886007
:100FF000FFF76AFF4FF000600449086010BD000071
:10100000001002400000FFF8FFFFF6FE08ED00E0D0
:1010100010B50121880700F01EF888B1012188076A
:1010200000F016F807480068401C064908600846AA
:1010300005A102680548FFF7EDF8044800F052F9F1
:1010400010BD000000000020202564001C000020CE
:10105000CA430282704730B50246002000230024B4
:10106000158A05EA0103958905EA010413B10CB15B
:10107000012000E0002030BD10B540F225510848A5
:1010800000F05BF858B140F22551054800F00AF82D
:10109000034800F01DF90446E0B200F009F910BD64
:1010A0000044004010B50022002340F66A14A1421B
:1010B00000D100BF0A1201249440A3B2DC43048093
:1010C00010BD21B1828942F40052828104E08289FC
:1010D0004DF6FF731A408281704700001FB54FF430
:1010E000E13000900020ADF80400ADF80600ADF846
:1010F00008000C20ADF80A000020ADF80C0069468D
:10110000064800F069F8012240F22551034800F03A
:101110003EF801210148FFF7D4FF1FBD0044004005
:1011200002460020B1F5007F00D100BF13880B40BC
:101130000BB1012000E00020704770B5024600248A
:1011400000230025002040F66A16B14200D100BFFE
:10115000C1F3421501F01F03012606FA03F3012D26
:1011600002D19689334006E0022D02D1168A33401F
:1011700001E0968A33400C12012606FA04F4168820
:10118000344013B10CB1012000E0002070BDF0B577
:101190000346002400260025002040F66A17B942C5
:1011A00000D100BF1846C1F3421401F01F06012709
:1011B00007FA06F5012C01D10C3004E0022C01D114
:1011C000103000E014301AB107682F43076002E0C6
:1011D0000768AF430760F0BD2DE9F04786B00546CC
:1011E0000E460024A24600BFA1460027B08900B1E8
:1011F00000BF2F462C8A4CF6FF700440F088044351
:101200002C82AC894EF6F3100440B0883189084333
:10121000718908430443AC81AC8A4FF6FF40044017
:10122000B0890443AC8201A8FFF7E4FD1F48874260
:1012300002D1DDF810A001E0DDF80CA0A88900F4CF
:10124000004040B10AEBCA0000EB0A1031684900C7
:10125000B0FBF1F807E00AEBCA0000EB0A103168B6
:101260008900B0FBF1F86420B8FBF0F0040120091C
:10127000642101FB1089A88900F4004040B13220AC
:1012800000EBC900B0FBF1F000F00700044308E0F8
:10129000322000EB09106421B0FBF1F000F00F00E8
:1012A00004432C8106B0BDE8F087000000380140FF
:1012B00010B504462146054800F00FF800BF802114
:1012C0000248FFF72DFF0028F9D010BD0044004070
:1012D00001468888C0F308007047C1F30802828085
:1012E0007047000010B504460BE014F8011B0748D6
:1012F000FFF7F3FF00BF80210448FFF711FF00282C
:10130000F9D020780028F0D110BD00000044004042
:10131000014642F228324A434FF0E0235A6100224C
:101320009A6101221A6100BF4FF0E022106900F0BB
:1013300001021AB100F48032002AF5D000224FF0E9
:10134000E0231A619A617047FFF746FDFFF7B4FC8E
:10135000FFF7C4FEFFF716FAFFF7CEFAFFF7DFF943
:10136000FFF760FB01E0FFF785FCFCE78C1300084A
:10137000000000201C0000006C010008A8130008F9
:101380001C00002074060000880100080000000016
:101390000000000000000000010203040102030439
:0813A000060708090204060813
:0400000508000131BD
:00000001FF
