:020000040800F2
:10000000D8060020CD010008F7030008EF03000820
:10001000F303000887020008C90A00080000000076
:10002000000000000000000000000000D5050008EE
:100030008B02000800000000A5040008C1060008AB
:10004000E7010008E7010008E7010008E7010008F0
:10005000E7010008E7010008E7010008E7010008E0
:10006000E7010008E7010008E7010008E7010008D0
:10007000E7010008E7010008E7010008E7010008C0
:10008000E7010008E7010008E7010008E7010008B0
:10009000E7010008E7010008E7010008E7010008A0
:1000A000E7010008E7010008E7010008E701000890
:1000B000E7010008E7010008E7010008E701000880
:1000C000E7010008E7010008E7010008E701000870
:1000D000E7010008E701000825070008E70100081C
:1000E000E7010008E7010008E7010008E701000850
:1000F000E7010008E7010008E7010008E701000840
:10010000E7010008E7010008E7010008E70100082F
:10011000E7010008E7010008E7010008E70100081F
:10012000E7010008E7010008E7010008E70100080F
:1001300000F002F800F03AF80AA090E8000C8244BF
:100140008344AAF10107DA4501D100F02FF8AFF29C
:10015000090EBAE80F0013F0010F18BFFB1A43F0A5
:1001600001031847F00B0000100C0000103A24BFE8
:1001700078C878C1FAD8520724BF30C830C144BF0C
:1001800004680C607047000000230024002500264E
:10019000103A28BF78C1FBD8520728BF30C148BFEA
:1001A0000B6070471FB51FBD10B510BD00F031F8D2
:1001B0001146FFF7F7FF00F0BBFC00F04FF803B467
:1001C000FFF7F2FF03BC00F057F800000948804732
:1001D00009480047FEE7FEE7FEE7FEE7FEE7FEE729
:1001E000FEE7FEE7FEE7FEE704480549054A064B41
:1001F00070470000C506000831010008D800002043
:10020000D8060020D8020020D8020020704770478E
:100210007047754600F02CF8AE4605006946534617
:1002200020F00700854618B020B5FFF7DDFFBDE8D8
:1002300020404FF000064FF000074FF000084FF04D
:10024000000B21F00701AC46ACE8C009ACE8C009DE
:10025000ACE8C009ACE8C0098D46704710B504464B
:10026000AFF300802046BDE81040FFF7A8BF0000B4
:10027000004870477800002001491820ABBEFEE717
:1002800026000200704700BFFEE7704710B520202F
:100290000C4908801020C870032088700A4800F0BC
:1002A00017F80420074908801820C870074800F094
:1002B0000FF80820034908800420C870034800F0A4
:1002C00007F810BD4C000020000C01400008014060
:1002D0002DE9F041024600250026002000230024DD
:1002E000002791F803C00CF00F0591F803C00CF043
:1002F000100CBCF1000F03D091F802C04CEA0505C8
:1003000091F800C0BCF1000F31D0146800202BE040
:100310004FF0010C0CFA00F3B1F800C00CEA030630
:100320009E4220D183004FF00F0C0CFA03F7BC4320
:1003300005FA03FC4CEA040491F803C0BCF1280F51
:1003400006D14FF0010C0CFA00FCC2F814C00AE010
:1003500091F803C0BCF1480F05D14FF0010C0CFA25
:1003600000FCC2F810C0401C0828D1D31460B1F8BA
:1003700000C0BCF1FF0F34DD546800202EE000F116
:10038000080C4FF0010808FA0CF3B1F800C00CEAB1
:1003900003069E4221D183004FF00F0C0CFA03F7A5
:1003A000BC4305FA03FC4CEA040491F803C0BCF119
:1003B000280F05D100F1080C08FA0CF8C2F81480D7
:1003C00091F803C0BCF1480F07D100F1080C4FF0C1
:1003D000010808FA0CF8C2F81080401C0828CED397
:1003E0005460BDE8F081416170470161704700BF12
:1003F000FEE700BFFEE7704708B54FF4E06000F08D
:1004000047F826208DF8000000208DF801008DF8B7
:10041000020001208DF80300684600F001F808BDD5
:1004200070B5002100230F22C47804B3154C246852
:1004300004F4E064C4F5E064210AC1F10403CA4095
:10044000447804FA03F184781440214309010E4CE6
:100450000678A155047804F01F050124AC40057806
:100460006D11AD0005F1E025C5F8004109E0047803
:1004700004F01F050124AC40044D0678761145F8C0
:10048000264070BD0CED00E000E400E080E100E0FB
:1004900002490143024A1160704700000000FA055A
:1004A0000CED00E07047000029B1064AD269024312
:1004B000044BDA6104E0034AD2698243014BDA61FA
:1004C000704700000010024029B1064A92690243B9
:1004D000044B9A6104E0034A92698243014B9A619A
:1004E000704700000010024010B500F0EBF8012149
:1004F0000D20FFF7E9FF01214804FFF7D5FF10BDEC
:1005000030B500210022002400232D4D6D6805F038
:100510000C0121B1042905D0082923D105E0294D7A
:10052000056022E0274D05601FE0254D6D6805F44C
:100530007012234D6D6805F48034022505EB92425C
:100540001CB9214D554305600BE01D4D6D6805F448
:1005500000351DB11C4D5543056002E0194D554352
:10056000056002E0174D056000BF00BF144D6D68C7
:1005700005F0F0010909154D6B5C0568DD4045602B
:100580000F4D6D6805F4E061090A104D6B5C45681C
:10059000DD4085600A4D6D6805F46051C90A0B4D58
:1005A0006B5C4568DD40C560054D6D6805F44041F4
:1005B000890B074D6B5CC568B5FBF3F5056130BD74
:1005C0000010024000127A0000093D0000000020E7
:1005D00010000020704710B500F002F810BD0000B8
:1005E0000CB50020019000903348006840F4803042
:1005F0003149086000BF3048006800F400300090C6
:100600000198401C0190009818B90198B0F5A06FAE
:10061000F1D12948006800F4003010B101200090A9
:1006200001E0002000900098012843D12348006891
:1006300040F01000214908600846006820F00300DF
:1006400008600846006840F0020008601A484068E8
:10065000194948600846406848600846406840F4C8
:10066000806048600846406820F47C104860084676
:10067000406840F4E81048600846006840F0807028
:10068000086000BF0C48006800F000700028F9D036
:100690000948406820F00300074948600846406860
:1006A00040F00200486000BF0348406800F00C00C2
:1006B0000828F9D10CBD00000010024000200240C3
:1006C0007047000010B51348006840F00100114960
:1006D000086008464068104908400E4948600846CE
:1006E00000680E4908400B4908600846006820F47D
:1006F000802008600846406820F4FE0048604FF4FF
:100700001F008860FFF767FF4FF000600449086032
:1007100010BD0000001002400000FFF8FFFFF6FED1
:1007200008ED00E070B540F225511F4800F085F853
:1007300060B31D4800F0BFF9C1B21C480578681CC1
:100740001A4A10701A48415510460078801E184900
:10075000085C0D281AD110460078401E085C0A2853
:1007600014D1002404E01248005D12490855641CAD
:100770000E4800788442F6D301200F49087000200B
:100780000C490A4A127888540849087040F22771C7
:10079000054800F052F828B1002240F227710248C3
:1007A00000F075F870BD00000044004045000020D6
:1007B00041000020140000204200002021B1828965
:1007C00042F40052828104E082894DF6FF731A40A0
:1007D0008281704710B504464FF4E1300E4908603D
:1007E00000208880C880088188810C2048812046AC
:1007F00000F072F8012240F22551084800F047F855
:10080000012240F22771054800F041F80121034818
:10081000FFF7D4FF10BD0000580000200044004046
:1008200002460020B1F5007F00D100BF13880B40C5
:100830000BB1012000E00020704770B50246002493
:1008400000230025002040F66A16B14200D100BF07
:10085000C1F3421501F01F03012606FA03F3012D2F
:1008600002D19689334006E0022D02D1168A334028
:1008700001E0968A33400C12012606FA04F4168829
:10088000344013B10CB1012000E0002070BDF0B580
:100890000346002400260025002040F66A17B942CE
:1008A00000D100BF1846C1F3421401F01F06012712
:1008B00007FA06F5012C01D10C3004E0022C01D11D
:1008C000103000E014301AB107682F43076002E0CF
:1008D0000768AF430760F0BD2DE9F04786B00546D5
:1008E0000E460024A24600BFA1460027B08900B1F1
:1008F00000BF2F462C8A4CF6FF700440F08804435A
:100900002C82AC894EF6F3100440B088318908433C
:10091000718908430443AC81AC8A4FF6FF40044020
:10092000B0890443AC8201A8FFF7EAFD1F48874263
:1009300002D1DDF810A001E0DDF80CA0A88900F4D8
:10094000004040B10AEBCA0000EB0A1031684900D0
:10095000B0FBF1F807E00AEBCA0000EB0A103168BF
:100960008900B0FBF1F86420B8FBF0F00401200925
:10097000642101FB1089A88900F4004040B13220B5
:1009800000EBC900B0FBF1F000F00700044308E001
:10099000322000EB09106421B0FBF1F000F00F00F1
:1009A00004432C8106B0BDE8F08700000038014008
:1009B0000FB470B586B006460CA8019073E00B9892
:1009C00000785C281CD10B98401C0B9000786E2896
:1009D00009D072280FD10D21304600F071F80B9824
:1009E000401C0B900BE00A21304600F069F80B9890
:1009F000401C0B9003E00B98401C0B9000BF4BE099
:100A00000B980078252840D10B98401C0B9000785B
:100A1000642818D0732833D1019810C801900BE0D6
:100A20002178304600F04CF800BF40213046FFF7F7
:100A3000F7FE0028F9D0641C20780028F0D10B982C
:100A4000401C0B9020E0019820C801900A2202A9C6
:100A5000284600F03BF802AC0BE02178304600F06D
:100A60002FF800BF40213046FFF7DAFE0028F9D00A
:100A7000641C20780028F0D10B98401C0B9003E0F8
:100A80000B98401C0B9000BF06E00B9810F8011B60
:100A90000B90304600F014F800BF40213046FFF7BD
:100AA000BFFE0028F9D00B980078002887D106B047
:100AB00070BC5DF814FB01468888C0F308007047DD
:100AC000C1F308028280704700BFFEE7F0B503461D
:100AD0000D461646002729460A2E03D0002008702E
:100AE0002846F0BD33B9302001F8010B0020087012
:100AF0002846F6E7002B03DA2D2001F8010B5B42B4
:100B000042F210720DE093FBF2F404B937B104F134
:100B1000300001F8010B04FB123301270A2092FB7D
:100B2000F0F2002AEFDC002008702846D9E7000028
:100B30000024FFF7D9FCFFF75FFCFFF7A7FB26486F
:100B4000FFF748FE25A12448FFF732FF31A12248D4
:100B5000FFF72EFF3DA12048FFF72AFF2DA11E48D9
:100B6000FFF726FF47A11C48FFF722FF29A11A48DB
:100B7000FFF71EFF51A11848FFF71AFF25A11648DD
:100B8000FFF716FF5BA11448FFF712FF67A1124899
:100B9000FFF70EFF65A11048FFF70AFF1AE064484F
:100BA0000078012816D100206149087061A10A4827
:100BB000FFF7FEFE65490848FFF7FAFE2CB9202131
:100BC0006348FFF712FC012404E020216048FFF78E
:100BD0000AFC0024E3E70000004400402A2A2A2AF5
:100BE00028432920434F5059524947485420323016
:100BF000313320B7DCB6B7C7B6C8EBCABDBFAAB79A
:100C0000A2B9A4D7F7CAD2202A2A2A2A2A2A2A0D28
:100C10000A0000002A202020202020202020202040
:100C200020202020202020202020202020202020C4
:100C300020202020202020202020202020202020B4
:100C40002020202020202A0D0A0000002A20202019
:100C5000202020202020B7DCB6B7B0E653544D3317
:100C600032BFAAB7A2B0E52055534152543220CA30
:100C7000B5D1E920202020202020202020202A0D6E
:100C80000A0000002A2020D2D4484558C4A3CABD77
:100C9000CAE4C8EBD2BBB4AECAFDBEDDA3ACD2D4AD
:100CA0003136BDF8D6C63064203061D7F7CEAABD44
:100CB000E1CAF82020202A0D0A0000002A2020B7CF
:100CC000DCB6B753544D3332C2DBCCB3A3BA77771B
:100CD000772E6F757273746D2E6E657420202020D0
:100CE00020202020202020202020202020202A0D0D
:100CF0000A0000002A2A2A2A2A2A2A2A2A2A2A2AF2
:100D00002A2A2A2A2A2A2A2A2A2A2A2A2A2A2A2A43
:100D10002A2A2A2A2A2A2A2A2A2A2A2A2A2A2A2A33
:100D20002A2A2A2A2A2A2A0D0A0000000D0A00006F
:100D3000420000200D0AC4FAB7A2CBCDB5C4D0C57D
:100D4000CFA2CEAA3A200D0A000000001400002015
:100D5000000C0140740D0008000000205800000045
:100D60006C010008CC0D000858000020800600002F
:100D700088010008000000000102030401020304CE
:100D80000607080902040608555341525420496ECB
:100D900074657272757074204578616D706C653A17
:100DA000205468697320697320555341525432208E
:100DB00044454D4F0000000000000000000000000E
:0C0DC00000000000000000000000000027
:0400000508000131BD
:00000001FF
